{
  "contractName": "LABankdapp",
  "abi": [
    {
      "constant": true,
      "inputs": [],
      "name": "name",
      "outputs": [
        {
          "name": "",
          "type": "bytes32"
        }
      ],
      "payable": false,
      "stateMutability": "view",
      "type": "function"
    },
    {
      "constant": false,
      "inputs": [
        {
          "name": "from",
          "type": "address"
        },
        {
          "name": "amount",
          "type": "uint256"
        }
      ],
      "name": "reduce",
      "outputs": [
        {
          "name": "",
          "type": "bool"
        }
      ],
      "payable": false,
      "stateMutability": "nonpayable",
      "type": "function"
    },
    {
      "constant": false,
      "inputs": [
        {
          "name": "_uad",
          "type": "address"
        },
        {
          "name": "_skill",
          "type": "bytes32"
        }
      ],
      "name": "removeSkill",
      "outputs": [
        {
          "name": "",
          "type": "uint256"
        }
      ],
      "payable": false,
      "stateMutability": "nonpayable",
      "type": "function"
    },
    {
      "constant": true,
      "inputs": [
        {
          "name": "_uad",
          "type": "address"
        },
        {
          "name": "_skill",
          "type": "bytes32"
        }
      ],
      "name": "decimals",
      "outputs": [
        {
          "name": "",
          "type": "uint256"
        }
      ],
      "payable": false,
      "stateMutability": "view",
      "type": "function"
    },
    {
      "constant": false,
      "inputs": [],
      "name": "kill",
      "outputs": [
        {
          "name": "",
          "type": "uint256"
        }
      ],
      "payable": false,
      "stateMutability": "nonpayable",
      "type": "function"
    },
    {
      "constant": false,
      "inputs": [],
      "name": "insertUser",
      "outputs": [
        {
          "name": "",
          "type": "address"
        }
      ],
      "payable": false,
      "stateMutability": "nonpayable",
      "type": "function"
    },
    {
      "constant": false,
      "inputs": [
        {
          "name": "_greeting",
          "type": "bytes32"
        }
      ],
      "name": "setGreeter",
      "outputs": [
        {
          "name": "",
          "type": "address"
        }
      ],
      "payable": false,
      "stateMutability": "nonpayable",
      "type": "function"
    },
    {
      "constant": true,
      "inputs": [],
      "name": "getSender",
      "outputs": [
        {
          "name": "",
          "type": "address"
        }
      ],
      "payable": false,
      "stateMutability": "view",
      "type": "function"
    },
    {
      "constant": true,
      "inputs": [
        {
          "name": "who",
          "type": "address"
        }
      ],
      "name": "balanceOf",
      "outputs": [
        {
          "name": "",
          "type": "uint256"
        }
      ],
      "payable": false,
      "stateMutability": "view",
      "type": "function"
    },
    {
      "constant": true,
      "inputs": [],
      "name": "owner",
      "outputs": [
        {
          "name": "",
          "type": "address"
        }
      ],
      "payable": false,
      "stateMutability": "view",
      "type": "function"
    },
    {
      "constant": true,
      "inputs": [],
      "name": "symbol",
      "outputs": [
        {
          "name": "",
          "type": "bytes32"
        }
      ],
      "payable": false,
      "stateMutability": "view",
      "type": "function"
    },
    {
      "constant": false,
      "inputs": [
        {
          "name": "to",
          "type": "address"
        },
        {
          "name": "amount",
          "type": "uint256"
        }
      ],
      "name": "transfer",
      "outputs": [
        {
          "name": "",
          "type": "bool"
        }
      ],
      "payable": false,
      "stateMutability": "nonpayable",
      "type": "function"
    },
    {
      "constant": true,
      "inputs": [
        {
          "name": "index",
          "type": "uint256"
        }
      ],
      "name": "getUser",
      "outputs": [
        {
          "name": "",
          "type": "address"
        }
      ],
      "payable": false,
      "stateMutability": "view",
      "type": "function"
    },
    {
      "constant": false,
      "inputs": [
        {
          "name": "_uad",
          "type": "address"
        },
        {
          "name": "_skill",
          "type": "bytes32"
        }
      ],
      "name": "addSkill",
      "outputs": [
        {
          "name": "",
          "type": "uint256"
        }
      ],
      "payable": false,
      "stateMutability": "nonpayable",
      "type": "function"
    },
    {
      "constant": true,
      "inputs": [],
      "name": "greet",
      "outputs": [
        {
          "name": "",
          "type": "bytes32"
        }
      ],
      "payable": false,
      "stateMutability": "view",
      "type": "function"
    },
    {
      "constant": true,
      "inputs": [
        {
          "name": "_uad",
          "type": "address"
        }
      ],
      "name": "getSkills",
      "outputs": [
        {
          "name": "",
          "type": "bytes32[]"
        }
      ],
      "payable": false,
      "stateMutability": "view",
      "type": "function"
    },
    {
      "constant": false,
      "inputs": [
        {
          "name": "newOwner",
          "type": "address"
        }
      ],
      "name": "transferOwnership",
      "outputs": [],
      "payable": false,
      "stateMutability": "nonpayable",
      "type": "function"
    },
    {
      "inputs": [],
      "payable": false,
      "stateMutability": "nonpayable",
      "type": "constructor"
    },
    {
      "payable": false,
      "stateMutability": "nonpayable",
      "type": "fallback"
    },
    {
      "anonymous": false,
      "inputs": [
        {
          "indexed": true,
          "name": "from",
          "type": "address"
        },
        {
          "indexed": true,
          "name": "to",
          "type": "address"
        },
        {
          "indexed": false,
          "name": "value",
          "type": "uint256"
        }
      ],
      "name": "LogTransfer",
      "type": "event"
    }
  ],
  "bytecode": "0x6060604052341561000f57600080fd5b336000806101000a81548173ffffffffffffffffffffffffffffffffffffffff021916908373ffffffffffffffffffffffffffffffffffffffff160217905550620f4240600460003373ffffffffffffffffffffffffffffffffffffffff1673ffffffffffffffffffffffffffffffffffffffff168152602001908152602001600020819055507f4543524f55000000000000000000000000000000000000000000000000000000600281600019169055507f45435200000000000000000000000000000000000000000000000000000000006001816000191690555060006003819055506101456040805190810160405280600b81526020017f48454c4c4f20574f524c4400000000000000000000000000000000000000000081525061015464010000000002610fd5176401000000009004565b60058160001916905550610199565b600061015e610185565b829050600081511415610177576000600102915061017f565b602083015191505b50919050565b602060405190810160405280600081525090565b611096806101a86000396000f3006060604052600436106100f1576000357c0100000000000000000000000000000000000000000000000000000000900463ffffffff16806306fdde03146101015780631395e640146101325780631a750d811461018c578063313ce567146101e657806341c0e1b51461020f578063444dc9f3146102245780635b81d985146102795780635e01eb5a146102a057806370a08231146102f55780638da5cb5b1461034257806395d89b4114610397578063a9059cbb146103c8578063b0467deb14610422578063c07b143314610485578063cfae3217146104df578063e63a06d514610510578063f2fde38b1461059e575b34156100fc57600080fd5b600080fd5b341561010c57600080fd5b6101146105d7565b60405180826000191660001916815260200191505060405180910390f35b341561013d57600080fd5b610172600480803573ffffffffffffffffffffffffffffffffffffffff169060200190919080359060200190919050506105e1565b604051808215151515815260200191505060405180910390f35b341561019757600080fd5b6101d0600480803573ffffffffffffffffffffffffffffffffffffffff169060200190919080356000191690602001909190505061066e565b6040518082815260200191505060405180910390f35b34156101f157600080fd5b6101f96108df565b6040518082815260200191505060405180910390f35b341561021a57600080fd5b6102226108e9565b005b341561022f57600080fd5b61023761097e565b604051808273ffffffffffffffffffffffffffffffffffffffff1673ffffffffffffffffffffffffffffffffffffffff16815260200191505060405180910390f35b341561028457600080fd5b61029e600480803560001916906020019091905050610a0b565b005b34156102ab57600080fd5b6102b3610a19565b604051808273ffffffffffffffffffffffffffffffffffffffff1673ffffffffffffffffffffffffffffffffffffffff16815260200191505060405180910390f35b341561030057600080fd5b61032c600480803573ffffffffffffffffffffffffffffffffffffffff16906020019091905050610a21565b6040518082815260200191505060405180910390f35b341561034d57600080fd5b610355610a6a565b604051808273ffffffffffffffffffffffffffffffffffffffff1673ffffffffffffffffffffffffffffffffffffffff16815260200191505060405180910390f35b34156103a257600080fd5b6103aa610a8f565b60405180826000191660001916815260200191505060405180910390f35b34156103d357600080fd5b610408600480803573ffffffffffffffffffffffffffffffffffffffff16906020019091908035906020019091905050610a99565b604051808215151515815260200191505060405180910390f35b341561042d57600080fd5b6104436004808035906020019091905050610b08565b604051808273ffffffffffffffffffffffffffffffffffffffff1673ffffffffffffffffffffffffffffffffffffffff16815260200191505060405180910390f35b341561049057600080fd5b6104c9600480803573ffffffffffffffffffffffffffffffffffffffff1690602001909190803560001916906020019091905050610b63565b6040518082815260200191505060405180910390f35b34156104ea57600080fd5b6104f2610c1c565b60405180826000191660001916815260200191505060405180910390f35b341561051b57600080fd5b610547600480803573ffffffffffffffffffffffffffffffffffffffff16906020019091905050610c26565b6040518080602001828103825283818151815260200191508051906020019060200280838360005b8381101561058a57808201518184015260208101905061056f565b505050509050019250505060405180910390f35b34156105a957600080fd5b6105d5600480803573ffffffffffffffffffffffffffffffffffffffff16906020019091905050610cc7565b005b6000600254905090565b6000816105ed84610a21565b10156105f857600080fd5b600061060c61060685610a21565b84610d65565b141561061757600080fd5b81600460008573ffffffffffffffffffffffffffffffffffffffff1673ffffffffffffffffffffffffffffffffffffffff168152602001908152602001600020600082825403925050819055506001905092915050565b600080600080600760008773ffffffffffffffffffffffffffffffffffffffff1673ffffffffffffffffffffffffffffffffffffffff1681526020019081526020016000206001600760008973ffffffffffffffffffffffffffffffffffffffff1673ffffffffffffffffffffffffffffffffffffffff168152602001908152602001600020805490500381548110151561070557fe5b9060005260206000209001549250600090505b600760008773ffffffffffffffffffffffffffffffffffffffff1673ffffffffffffffffffffffffffffffffffffffff168152602001908152602001600020805490508110156107de578460001916600760008873ffffffffffffffffffffffffffffffffffffffff1673ffffffffffffffffffffffffffffffffffffffff168152602001908152602001600020828154811015156107b357fe5b9060005260206000209001546000191614156107d1578091506107de565b8080600101915050610718565b82600760008873ffffffffffffffffffffffffffffffffffffffff1673ffffffffffffffffffffffffffffffffffffffff1681526020019081526020016000208381548110151561082b57fe5b90600052602060002090018160001916905550600760008773ffffffffffffffffffffffffffffffffffffffff1673ffffffffffffffffffffffffffffffffffffffff1681526020019081526020016000208054809190600190036108909190610ee4565b50600760008773ffffffffffffffffffffffffffffffffffffffff1673ffffffffffffffffffffffffffffffffffffffff16815260200190815260200160002080549050935050505092915050565b6000600354905090565b6000809054906101000a900473ffffffffffffffffffffffffffffffffffffffff1673ffffffffffffffffffffffffffffffffffffffff163373ffffffffffffffffffffffffffffffffffffffff1614151561094457600080fd5b6000809054906101000a900473ffffffffffffffffffffffffffffffffffffffff1673ffffffffffffffffffffffffffffffffffffffff16ff5b600080610989610f10565b604051809103906000f080151561099f57600080fd5b9050600680548060010182816109b59190610f1f565b9160005260206000209001600083909190916101000a81548173ffffffffffffffffffffffffffffffffffffffff021916908373ffffffffffffffffffffffffffffffffffffffff160217905550508091505090565b806005816000191690555050565b600033905090565b6000600460008373ffffffffffffffffffffffffffffffffffffffff1673ffffffffffffffffffffffffffffffffffffffff168152602001908152602001600020549050919050565b6000809054906101000a900473ffffffffffffffffffffffffffffffffffffffff1681565b6000600154905090565b60008060009054906101000a900473ffffffffffffffffffffffffffffffffffffffff1673ffffffffffffffffffffffffffffffffffffffff163373ffffffffffffffffffffffffffffffffffffffff16141515610af657600080fd5b610b008383610d84565b905092915050565b6000816006805490501115610b5957600682815481101515610b2657fe5b906000526020600020900160009054906101000a900473ffffffffffffffffffffffffffffffffffffffff169050610b5e565b600090505b919050565b6000600760008473ffffffffffffffffffffffffffffffffffffffff1673ffffffffffffffffffffffffffffffffffffffff1681526020019081526020016000208054806001018281610bb69190610f4b565b916000526020600020900160008490919091509060001916905550600760008473ffffffffffffffffffffffffffffffffffffffff1673ffffffffffffffffffffffffffffffffffffffff16815260200190815260200160002080549050905092915050565b6000600554905090565b610c2e610f77565b600760008373ffffffffffffffffffffffffffffffffffffffff1673ffffffffffffffffffffffffffffffffffffffff168152602001908152602001600020805480602002602001604051908101604052809291908181526020018280548015610cbb57602002820191906000526020600020905b81546000191681526020019060010190808311610ca3575b50505050509050919050565b6000809054906101000a900473ffffffffffffffffffffffffffffffffffffffff1673ffffffffffffffffffffffffffffffffffffffff163373ffffffffffffffffffffffffffffffffffffffff16141515610d2257600080fd5b806000806101000a81548173ffffffffffffffffffffffffffffffffffffffff021916908373ffffffffffffffffffffffffffffffffffffffff16021790555050565b600082821115610d785760009050610d7e565b81830390505b92915050565b600081610d9033610a21565b1015610d9b57600080fd5b6000610daf610da985610a21565b84610ec3565b1415610dba57600080fd5b81600460003373ffffffffffffffffffffffffffffffffffffffff1673ffffffffffffffffffffffffffffffffffffffff1681526020019081526020016000206000828254039250508190555081600460008573ffffffffffffffffffffffffffffffffffffffff1673ffffffffffffffffffffffffffffffffffffffff168152602001908152602001600020600082825401925050819055508273ffffffffffffffffffffffffffffffffffffffff163373ffffffffffffffffffffffffffffffffffffffff167f0a85107a334eae0d22d21cdf13af0f8e8125039ec60baaa843d2c4c5b0680174846040518082815260200191505060405180910390a36001905092915050565b6000828284011015610ed85760009050610ede565b81830190505b92915050565b815481835581811511610f0b57818360005260206000209182019101610f0a9190610f8b565b5b505050565b60405160508061101b83390190565b815481835581811511610f4657818360005260206000209182019101610f459190610fb0565b5b505050565b815481835581811511610f7257818360005260206000209182019101610f719190610f8b565b5b505050565b602060405190810160405280600081525090565b610fad91905b80821115610fa9576000816000905550600101610f91565b5090565b90565b610fd291905b80821115610fce576000816000905550600101610fb6565b5090565b90565b6000610fdf611006565b829050600081511415610ff85760006001029150611000565b602083015191505b50919050565b602060405190810160405280600081525090560060606040523415600e57600080fd5b603580601b6000396000f3006060604052600080fd00a165627a7a72305820173cfd8ffb4a541fec5dd8b9e17efa3a3a718b1d1c57d89f84d5d9f25399f6070029a165627a7a723058204178b4161f26a3334a5d3574809d7bdd7452bfeb967f862fb304af237824bbb20029",
  "source": "pragma solidity ^0.4.18;\r\n\r\nimport './Owned.sol';\r\nimport './ECRToken.sol';\r\nimport './Utils.sol';\r\n\r\ncontract User{}\r\n\r\ncontract LABankdapp is Utils, Owned, ECRToken{\r\n    /* Define variable greeting of the type bytes32 */\r\n    bytes32 greeting;\r\n    address[] private users;\r\n    mapping(address => bytes32[]) private mapSkills;\r\n\r\n    function () public {\r\n        revert(); // throw reverts state to before call\r\n    }\r\n\r\n    function LABankdapp() public{\r\n        greeting = stringToBytes32(\"HELLO WORLD\");\r\n    }\r\n\r\n    function setGreeter(bytes32 _greeting) public {\r\n        greeting = _greeting;\r\n    }\r\n\r\n\tfunction getSender() public constant returns(address){\r\n        return msg.sender;\r\n    }\r\n\r\n    function greet() public constant returns(bytes32) {\r\n        return greeting;\r\n    }\r\n\r\n    function getUser(uint index) public constant returns(address){\r\n        if(users.length > index) return users[index];\r\n        else return address(0);\r\n    }\r\n\r\n    function insertUser() public returns(address){\r\n        address uad = new User();\r\n        users.push(uad);\r\n        return uad;\r\n    }\r\n\r\n    function getSkills(address _uad) public constant returns(bytes32[]) {\r\n        return mapSkills[_uad];\r\n    }\r\n\r\n    function addSkill(address _uad, bytes32 _skill) public returns(uint){\r\n        mapSkills[_uad].push(_skill);\r\n        return mapSkills[_uad].length;\r\n    }\r\n\r\n    function removeSkill(address _uad, bytes32 _skill) public returns(uint){\r\n        bytes32 lastItem = mapSkills[_uad][mapSkills[_uad].length-1];\r\n        uint res;\r\n        for(uint i = 0; i < mapSkills[_uad].length; i++){\r\n            if(mapSkills[_uad][i] == _skill){\r\n                res = i;\r\n            break;\r\n            }\r\n        }\r\n        mapSkills[_uad][res] = lastItem;\r\n        mapSkills[_uad].length--;\r\n        return(mapSkills[_uad].length);\r\n    }\r\n}\r\n",
  "sourcePath": "T:\\LAB\\LABank\\LABankdapp\\contracts\\LABankdapp.sol",
  "compiler": {
    "name": "solc",
    "version": "0.4.18+commit.9cf6e910.Emscripten.clang"
  },
  "schemaVersion": "1.0.1",
  "updatedAt": "2018-01-21T12:18:54.034Z"
}