{
  "contractName": "LABankdapp",
  "abi": [
    {
      "constant": true,
      "inputs": [],
      "name": "name",
      "outputs": [
        {
          "name": "",
          "type": "bytes32"
        }
      ],
      "payable": false,
      "stateMutability": "view",
      "type": "function"
    },
    {
      "constant": false,
      "inputs": [
        {
          "name": "from",
          "type": "address"
        },
        {
          "name": "amount",
          "type": "uint256"
        }
      ],
      "name": "reduce",
      "outputs": [
        {
          "name": "",
          "type": "bool"
        }
      ],
      "payable": false,
      "stateMutability": "nonpayable",
      "type": "function"
    },
    {
      "constant": false,
      "inputs": [
        {
          "name": "_uad",
          "type": "address"
        },
        {
          "name": "_skill",
          "type": "bytes32"
        }
      ],
      "name": "removeSkill",
      "outputs": [
        {
          "name": "",
          "type": "uint256"
        }
      ],
      "payable": false,
      "stateMutability": "nonpayable",
      "type": "function"
    },
    {
      "constant": true,
      "inputs": [],
      "name": "decimals",
      "outputs": [
        {
          "name": "",
          "type": "uint256"
        }
      ],
      "payable": false,
      "stateMutability": "view",
      "type": "function"
    },
    {
      "constant": false,
      "inputs": [],
      "name": "kill",
      "outputs": [],
      "payable": false,
      "stateMutability": "nonpayable",
      "type": "function"
    },
    {
      "constant": false,
      "inputs": [
        {
          "name": "initialAmount",
          "type": "uint256"
        }
      ],
      "name": "insertUser",
      "outputs": [],
      "payable": false,
      "stateMutability": "nonpayable",
      "type": "function"
    },
    {
      "constant": false,
      "inputs": [
        {
          "name": "_greeting",
          "type": "bytes32"
        }
      ],
      "name": "setGreeter",
      "outputs": [],
      "payable": false,
      "stateMutability": "nonpayable",
      "type": "function"
    },
    {
      "constant": true,
      "inputs": [],
      "name": "getSender",
      "outputs": [
        {
          "name": "",
          "type": "address"
        }
      ],
      "payable": false,
      "stateMutability": "view",
      "type": "function"
    },
    {
      "constant": true,
      "inputs": [
        {
          "name": "who",
          "type": "address"
        }
      ],
      "name": "balanceOf",
      "outputs": [
        {
          "name": "",
          "type": "uint256"
        }
      ],
      "payable": false,
      "stateMutability": "view",
      "type": "function"
    },
    {
      "constant": true,
      "inputs": [],
      "name": "owner",
      "outputs": [
        {
          "name": "",
          "type": "address"
        }
      ],
      "payable": false,
      "stateMutability": "view",
      "type": "function"
    },
    {
      "constant": true,
      "inputs": [],
      "name": "symbol",
      "outputs": [
        {
          "name": "",
          "type": "bytes32"
        }
      ],
      "payable": false,
      "stateMutability": "view",
      "type": "function"
    },
    {
      "constant": false,
      "inputs": [
        {
          "name": "to",
          "type": "address"
        },
        {
          "name": "amount",
          "type": "uint256"
        }
      ],
      "name": "transfer",
      "outputs": [
        {
          "name": "",
          "type": "bool"
        }
      ],
      "payable": false,
      "stateMutability": "nonpayable",
      "type": "function"
    },
    {
      "constant": true,
      "inputs": [
        {
          "name": "index",
          "type": "uint256"
        }
      ],
      "name": "getUser",
      "outputs": [
        {
          "name": "",
          "type": "address"
        }
      ],
      "payable": false,
      "stateMutability": "view",
      "type": "function"
    },
    {
      "constant": false,
      "inputs": [
        {
          "name": "_uad",
          "type": "address"
        },
        {
          "name": "_skill",
          "type": "bytes32"
        }
      ],
      "name": "addSkill",
      "outputs": [
        {
          "name": "",
          "type": "uint256"
        }
      ],
      "payable": false,
      "stateMutability": "nonpayable",
      "type": "function"
    },
    {
      "constant": true,
      "inputs": [],
      "name": "greet",
      "outputs": [
        {
          "name": "",
          "type": "bytes32"
        }
      ],
      "payable": false,
      "stateMutability": "view",
      "type": "function"
    },
    {
      "constant": true,
      "inputs": [
        {
          "name": "_uad",
          "type": "address"
        }
      ],
      "name": "getSkills",
      "outputs": [
        {
          "name": "",
          "type": "bytes32[]"
        }
      ],
      "payable": false,
      "stateMutability": "view",
      "type": "function"
    },
    {
      "constant": true,
      "inputs": [],
      "name": "getLastUser",
      "outputs": [
        {
          "name": "",
          "type": "uint256"
        }
      ],
      "payable": false,
      "stateMutability": "view",
      "type": "function"
    },
    {
      "constant": false,
      "inputs": [
        {
          "name": "newOwner",
          "type": "address"
        }
      ],
      "name": "transferOwnership",
      "outputs": [],
      "payable": false,
      "stateMutability": "nonpayable",
      "type": "function"
    },
    {
      "inputs": [],
      "payable": false,
      "stateMutability": "nonpayable",
      "type": "constructor"
    },
    {
      "payable": false,
      "stateMutability": "nonpayable",
      "type": "fallback"
    },
    {
      "anonymous": false,
      "inputs": [
        {
          "indexed": true,
          "name": "from",
          "type": "address"
        },
        {
          "indexed": true,
          "name": "to",
          "type": "address"
        },
        {
          "indexed": false,
          "name": "value",
          "type": "uint256"
        }
      ],
      "name": "LogTransfer",
      "type": "event"
    }
  ],
  "bytecode": "0x6060604052341561000f57600080fd5b336000806101000a81548173ffffffffffffffffffffffffffffffffffffffff021916908373ffffffffffffffffffffffffffffffffffffffff160217905550620f4240600460003373ffffffffffffffffffffffffffffffffffffffff1673ffffffffffffffffffffffffffffffffffffffff168152602001908152602001600020819055507f4543524f55000000000000000000000000000000000000000000000000000000600281600019169055507f45435200000000000000000000000000000000000000000000000000000000006001816000191690555060006003819055506101456040805190810160405280600b81526020017f48454c4c4f20574f524c4400000000000000000000000000000000000000000081525061015464010000000002611035176401000000009004565b60058160001916905550610199565b600061015e610185565b829050600081511415610177576000600102915061017f565b602083015191505b50919050565b602060405190810160405280600081525090565b6110f6806101a86000396000f3006060604052600436106100fc576000357c0100000000000000000000000000000000000000000000000000000000900463ffffffff16806306fdde031461010c5780631395e6401461013d5780631a750d8114610197578063313ce567146101dd57806341c0e1b5146102065780634ff2929d1461021b5780635b81d9851461023e5780635e01eb5a1461026557806370a08231146102ba5780638da5cb5b1461030757806395d89b411461035c578063a9059cbb1461038d578063b0467deb146103e7578063c07b14331461044a578063cfae321714610490578063e63a06d5146104c1578063efd799301461054f578063f2fde38b14610578575b341561010757600080fd5b600080fd5b341561011757600080fd5b61011f6105b1565b60405180826000191660001916815260200191505060405180910390f35b341561014857600080fd5b61017d600480803573ffffffffffffffffffffffffffffffffffffffff169060200190919080359060200190919050506105bb565b604051808215151515815260200191505060405180910390f35b34156101a257600080fd5b6101db600480803573ffffffffffffffffffffffffffffffffffffffff1690602001909190803560001916906020019091905050610648565b005b34156101e857600080fd5b6101f0610871565b6040518082815260200191505060405180910390f35b341561021157600080fd5b61021961087b565b005b341561022657600080fd5b61023c6004808035906020019091905050610910565b005b341561024957600080fd5b6102636004808035600019169060200190919050506109dd565b005b341561027057600080fd5b6102786109eb565b604051808273ffffffffffffffffffffffffffffffffffffffff1673ffffffffffffffffffffffffffffffffffffffff16815260200191505060405180910390f35b34156102c557600080fd5b6102f1600480803573ffffffffffffffffffffffffffffffffffffffff169060200190919050506109f3565b6040518082815260200191505060405180910390f35b341561031257600080fd5b61031a610a3c565b604051808273ffffffffffffffffffffffffffffffffffffffff1673ffffffffffffffffffffffffffffffffffffffff16815260200191505060405180910390f35b341561036757600080fd5b61036f610a61565b60405180826000191660001916815260200191505060405180910390f35b341561039857600080fd5b6103cd600480803573ffffffffffffffffffffffffffffffffffffffff16906020019091908035906020019091905050610a6b565b604051808215151515815260200191505060405180910390f35b34156103f257600080fd5b6104086004808035906020019091905050610ada565b604051808273ffffffffffffffffffffffffffffffffffffffff1673ffffffffffffffffffffffffffffffffffffffff16815260200191505060405180910390f35b341561045557600080fd5b61048e600480803573ffffffffffffffffffffffffffffffffffffffff1690602001909190803560001916906020019091905050610b35565b005b341561049b57600080fd5b6104a3610c6f565b60405180826000191660001916815260200191505060405180910390f35b34156104cc57600080fd5b6104f8600480803573ffffffffffffffffffffffffffffffffffffffff16906020019091905050610c79565b6040518080602001828103825283818151815260200191508051906020019060200280838360005b8381101561053b578082015181840152602081019050610520565b505050509050019250505060405180910390f35b341561055a57600080fd5b610562610d1a565b6040518082815260200191505060405180910390f35b341561058357600080fd5b6105af600480803573ffffffffffffffffffffffffffffffffffffffff16906020019091905050610d27565b005b6000600254905090565b6000816105c7846109f3565b10156105d257600080fd5b60006105e66105e0856109f3565b84610dc5565b14156105f157600080fd5b81600460008573ffffffffffffffffffffffffffffffffffffffff1673ffffffffffffffffffffffffffffffffffffffff168152602001908152602001600020600082825403925050819055506001905092915050565b6000806000600760008673ffffffffffffffffffffffffffffffffffffffff1673ffffffffffffffffffffffffffffffffffffffff1681526020019081526020016000206001600760008873ffffffffffffffffffffffffffffffffffffffff1673ffffffffffffffffffffffffffffffffffffffff16815260200190815260200160002080549050038154811015156106de57fe5b9060005260206000209001549250600090505b600760008673ffffffffffffffffffffffffffffffffffffffff1673ffffffffffffffffffffffffffffffffffffffff168152602001908152602001600020805490508110156107b7578360001916600760008773ffffffffffffffffffffffffffffffffffffffff1673ffffffffffffffffffffffffffffffffffffffff1681526020019081526020016000208281548110151561078c57fe5b9060005260206000209001546000191614156107aa578091506107b7565b80806001019150506106f1565b82600760008773ffffffffffffffffffffffffffffffffffffffff1673ffffffffffffffffffffffffffffffffffffffff1681526020019081526020016000208381548110151561080457fe5b90600052602060002090018160001916905550600760008673ffffffffffffffffffffffffffffffffffffffff1673ffffffffffffffffffffffffffffffffffffffff1681526020019081526020016000208054809190600190036108699190610f44565b505050505050565b6000600354905090565b6000809054906101000a900473ffffffffffffffffffffffffffffffffffffffff1673ffffffffffffffffffffffffffffffffffffffff163373ffffffffffffffffffffffffffffffffffffffff161415156108d657600080fd5b6000809054906101000a900473ffffffffffffffffffffffffffffffffffffffff1673ffffffffffffffffffffffffffffffffffffffff16ff5b600061091a610f70565b604051809103906000f080151561093057600080fd5b9050600680548060010182816109469190610f7f565b9160005260206000209001600083909190916101000a81548173ffffffffffffffffffffffffffffffffffffffff021916908373ffffffffffffffffffffffffffffffffffffffff1602179055505081600460008373ffffffffffffffffffffffffffffffffffffffff1673ffffffffffffffffffffffffffffffffffffffff168152602001908152602001600020819055505050565b806005816000191690555050565b600033905090565b6000600460008373ffffffffffffffffffffffffffffffffffffffff1673ffffffffffffffffffffffffffffffffffffffff168152602001908152602001600020549050919050565b6000809054906101000a900473ffffffffffffffffffffffffffffffffffffffff1681565b6000600154905090565b60008060009054906101000a900473ffffffffffffffffffffffffffffffffffffffff1673ffffffffffffffffffffffffffffffffffffffff163373ffffffffffffffffffffffffffffffffffffffff16141515610ac857600080fd5b610ad28383610de4565b905092915050565b6000816006805490501115610b2b57600682815481101515610af857fe5b906000526020600020900160009054906101000a900473ffffffffffffffffffffffffffffffffffffffff169050610b30565b600090505b919050565b60008090505b600760008473ffffffffffffffffffffffffffffffffffffffff1673ffffffffffffffffffffffffffffffffffffffff16815260200190815260200160002080549050811015610bfe57600760008473ffffffffffffffffffffffffffffffffffffffff1673ffffffffffffffffffffffffffffffffffffffff16815260200190815260200160002081815481101515610bd157fe5b9060005260206000209001546000191682600019161415610bf157600080fd5b8080600101915050610b3b565b600760008473ffffffffffffffffffffffffffffffffffffffff1673ffffffffffffffffffffffffffffffffffffffff1681526020019081526020016000208054806001018281610c4f9190610fab565b916000526020600020900160008490919091509060001916905550505050565b6000600554905090565b610c81610fd7565b600760008373ffffffffffffffffffffffffffffffffffffffff1673ffffffffffffffffffffffffffffffffffffffff168152602001908152602001600020805480602002602001604051908101604052809291908181526020018280548015610d0e57602002820191906000526020600020905b81546000191681526020019060010190808311610cf6575b50505050509050919050565b6000600680549050905090565b6000809054906101000a900473ffffffffffffffffffffffffffffffffffffffff1673ffffffffffffffffffffffffffffffffffffffff163373ffffffffffffffffffffffffffffffffffffffff16141515610d8257600080fd5b806000806101000a81548173ffffffffffffffffffffffffffffffffffffffff021916908373ffffffffffffffffffffffffffffffffffffffff16021790555050565b600082821115610dd85760009050610dde565b81830390505b92915050565b600081610df0336109f3565b1015610dfb57600080fd5b6000610e0f610e09856109f3565b84610f23565b1415610e1a57600080fd5b81600460003373ffffffffffffffffffffffffffffffffffffffff1673ffffffffffffffffffffffffffffffffffffffff1681526020019081526020016000206000828254039250508190555081600460008573ffffffffffffffffffffffffffffffffffffffff1673ffffffffffffffffffffffffffffffffffffffff168152602001908152602001600020600082825401925050819055508273ffffffffffffffffffffffffffffffffffffffff163373ffffffffffffffffffffffffffffffffffffffff167f0a85107a334eae0d22d21cdf13af0f8e8125039ec60baaa843d2c4c5b0680174846040518082815260200191505060405180910390a36001905092915050565b6000828284011015610f385760009050610f3e565b81830190505b92915050565b815481835581811511610f6b57818360005260206000209182019101610f6a9190610feb565b5b505050565b60405160508061107b83390190565b815481835581811511610fa657818360005260206000209182019101610fa59190611010565b5b505050565b815481835581811511610fd257818360005260206000209182019101610fd19190610feb565b5b505050565b602060405190810160405280600081525090565b61100d91905b80821115611009576000816000905550600101610ff1565b5090565b90565b61103291905b8082111561102e576000816000905550600101611016565b5090565b90565b600061103f611066565b8290506000815114156110585760006001029150611060565b602083015191505b50919050565b602060405190810160405280600081525090560060606040523415600e57600080fd5b603580601b6000396000f3006060604052600080fd00a165627a7a72305820e59e99b4e046e1ca5b24dd484f5bf8751997544c27e9387cefd14046d75921660029a165627a7a723058201fefcd3a71927ed0f8fb03eb9a946398c277ae5e57cccc02df38730e477d76720029",
  "source": "pragma solidity ^0.4.18;\r\n\r\nimport './Owned.sol';\r\nimport './ECRToken.sol';\r\nimport './Utils.sol';\r\n\r\ncontract User{}\r\n\r\ncontract LABankdapp is Utils, Owned, ECRToken{\r\n    /* Define variable greeting of the type bytes32 */\r\n    bytes32 greeting;\r\n    address[] private users;\r\n    mapping(address => bytes32[]) private mapSkills;\r\n\r\n    function () public {\r\n        revert(); // throw reverts state to before call\r\n    }\r\n\r\n    function LABankdapp() public{\r\n        greeting = stringToBytes32(\"HELLO WORLD\");\r\n    }\r\n\r\n    function setGreeter(bytes32 _greeting) public {\r\n        greeting = _greeting;\r\n    }\r\n\r\n\tfunction getSender() public constant returns(address){\r\n        return msg.sender;\r\n    }\r\n\r\n    function greet() public constant returns(bytes32) {\r\n        return greeting;\r\n    }\r\n\r\n    function getUser(uint index) public constant returns(address){\r\n        if(users.length > index) return users[index];\r\n        else return address(0);\r\n    }\r\n\r\n    function getLastUser() public constant returns(uint){\r\n      return users.length;\r\n    }\r\n\r\n    function insertUser(uint initialAmount) public{\r\n        address uad = new User();\r\n        users.push(uad);\r\n        balances[uad] = initialAmount; // ex pour les adhérents\r\n    }\r\n\r\n    function getSkills(address _uad) public constant returns(bytes32[]) {\r\n        return mapSkills[_uad];\r\n    }\r\n\r\n    function addSkill(address _uad, bytes32 _skill) public{\r\n      for(uint i = 0; i < mapSkills[_uad].length; i++){\r\n        if(_skill == mapSkills[_uad][i]) revert();\r\n      }\r\n      mapSkills[_uad].push(_skill);\r\n    }\r\n\r\n    function removeSkill(address _uad, bytes32 _skill) public{\r\n        bytes32 lastItem = mapSkills[_uad][mapSkills[_uad].length-1];\r\n        uint res;\r\n        for(uint i = 0; i < mapSkills[_uad].length; i++){\r\n            if(mapSkills[_uad][i] == _skill){\r\n              res = i;\r\n              break;\r\n            }\r\n        }\r\n        mapSkills[_uad][res] = lastItem;\r\n        mapSkills[_uad].length--;\r\n    }\r\n}\r\n",
  "sourcePath": "T:\\LAB\\LABank\\LABankdapp\\contracts\\LABankdapp.sol",
  "compiler": {
    "name": "solc",
    "version": "0.4.18+commit.9cf6e910.Emscripten.clang"
  },
  "schemaVersion": "1.0.1",
  "updatedAt": "2018-01-24T14:25:03.089Z"
}