{
  "contractName": "LABankdapp",
  "abi": [
    {
      "constant": true,
      "inputs": [],
      "name": "name",
      "outputs": [
        {
          "name": "",
          "type": "string"
        }
      ],
      "payable": false,
      "stateMutability": "view",
      "type": "function"
    },
    {
      "constant": false,
      "inputs": [
        {
          "name": "from",
          "type": "address"
        },
        {
          "name": "amount",
          "type": "uint256"
        }
      ],
      "name": "reduce",
      "outputs": [
        {
          "name": "",
          "type": "bool"
        }
      ],
      "payable": false,
      "stateMutability": "nonpayable",
      "type": "function"
    },
    {
      "constant": false,
      "inputs": [
        {
          "name": "_greeting",
          "type": "string"
        }
      ],
      "name": "setGreeter",
      "outputs": [],
      "payable": false,
      "stateMutability": "nonpayable",
      "type": "function"
    },
    {
      "constant": false,
      "inputs": [
        {
          "name": "_uad",
          "type": "address"
        },
        {
          "name": "_skill",
          "type": "bytes32"
        }
      ],
      "name": "removeSkill",
      "outputs": [
        {
          "name": "",
          "type": "uint256"
        }
      ],
      "payable": false,
      "stateMutability": "nonpayable",
      "type": "function"
    },
    {
      "constant": true,
      "inputs": [],
      "name": "decimals",
      "outputs": [
        {
          "name": "",
          "type": "uint256"
        }
      ],
      "payable": false,
      "stateMutability": "view",
      "type": "function"
    },
    {
      "constant": false,
      "inputs": [],
      "name": "kill",
      "outputs": [],
      "payable": false,
      "stateMutability": "nonpayable",
      "type": "function"
    },
    {
      "constant": false,
      "inputs": [],
      "name": "insertUser",
      "outputs": [
        {
          "name": "",
          "type": "address"
        }
      ],
      "payable": false,
      "stateMutability": "nonpayable",
      "type": "function"
    },
    {
      "constant": true,
      "inputs": [
        {
          "name": "who",
          "type": "address"
        }
      ],
      "name": "getSender",
      "outputs": [
        {
          "name": "",
          "type": "address"
        }
      ],
      "payable": false,
      "stateMutability": "view",
      "type": "function"
    },
    {
      "constant": true,
      "inputs": [
        {
          "name": "who",
          "type": "address"
        }
      ],
      "name": "balanceOf",
      "outputs": [
        {
          "name": "",
          "type": "uint256"
        }
      ],
      "payable": false,
      "stateMutability": "view",
      "type": "function"
    },
    {
      "constant": true,
      "inputs": [],
      "name": "owner",
      "outputs": [
        {
          "name": "",
          "type": "address"
        }
      ],
      "payable": false,
      "stateMutability": "view",
      "type": "function"
    },
    {
      "constant": true,
      "inputs": [
        {
          "name": "to",
          "type": "address"
        },
        {
          "name": "amount",
          "type": "uint256"
        }
      ],
      "name": "symbol",
      "outputs": [
        {
          "name": "",
          "type": "string"
        }
      ],
      "payable": false,
      "stateMutability": "view",
      "type": "function"
    },
    {
      "constant": false,
      "inputs": [
        {
          "name": "to",
          "type": "address"
        },
        {
          "name": "amount",
          "type": "uint256"
        }
      ],
      "name": "transfer",
      "outputs": [
        {
          "name": "",
          "type": "bool"
        }
      ],
      "payable": false,
      "stateMutability": "nonpayable",
      "type": "function"
    },
    {
      "constant": true,
      "inputs": [
        {
          "name": "index",
          "type": "uint256"
        },
        {
          "name": "_skill",
          "type": "bytes32"
        }
      ],
      "name": "getUser",
      "outputs": [
        {
          "name": "",
          "type": "address"
        }
      ],
      "payable": false,
      "stateMutability": "view",
      "type": "function"
    },
    {
      "constant": false,
      "inputs": [
        {
          "name": "_uad",
          "type": "address"
        },
        {
          "name": "_skill",
          "type": "bytes32"
        }
      ],
      "name": "addSkill",
      "outputs": [
        {
          "name": "",
          "type": "uint256"
        }
      ],
      "payable": false,
      "stateMutability": "nonpayable",
      "type": "function"
    },
    {
      "constant": true,
      "inputs": [
        {
          "name": "_uad",
          "type": "address"
        }
      ],
      "name": "greet",
      "outputs": [
        {
          "name": "",
          "type": "string"
        }
      ],
      "payable": false,
      "stateMutability": "view",
      "type": "function"
    },
    {
      "constant": true,
      "inputs": [
        {
          "name": "_uad",
          "type": "address"
        }
      ],
      "name": "getSkills",
      "outputs": [
        {
          "name": "",
          "type": "bytes32[]"
        }
      ],
      "payable": false,
      "stateMutability": "view",
      "type": "function"
    },
    {
      "inputs": [
        {
          "name": "newOwner",
          "type": "address"
        }
      ],
      "payable": false,
      "stateMutability": "nonpayable",
      "type": "function",
      "constant": false,
      "name": "transferOwnership",
      "outputs": []
    },
    {
      "payable": false,
      "stateMutability": "nonpayable",
      "type": "constructor",
      "inputs": []
    },
    {
      "anonymous": false,
      "inputs": [
        {
          "indexed": true,
          "name": "from",
          "type": "address"
        },
        {
          "indexed": true,
          "name": "to",
          "type": "address"
        },
        {
          "indexed": false,
          "name": "value",
          "type": "uint256"
        }
      ],
      "name": "LogTransfer",
      "type": "fallback",
      "payable": false,
      "stateMutability": "nonpayable"
    },
    {
      "anonymous": false,
      "inputs": [
        {
          "indexed": true,
          "name": "from",
          "type": "address"
        },
        {
          "indexed": true,
          "name": "to",
          "type": "address"
        },
        {
          "indexed": false,
          "name": "value",
          "type": "uint256"
        }
      ],
      "name": "LogTransfer",
      "type": "event"
    }
  ],
  "bytecode": "0x606060405234156200001057600080fd5b336000806101000a81548173ffffffffffffffffffffffffffffffffffffffff021916908373ffffffffffffffffffffffffffffffffffffffff160217905550620f4240600460003373ffffffffffffffffffffffffffffffffffffffff1673ffffffffffffffffffffffffffffffffffffffff168152602001908152602001600020819055506040805190810160405280600581526020017f4543524f5500000000000000000000000000000000000000000000000000000081525060029080519060200190620000e49291906200018f565b506040805190810160405280600381526020017f454352000000000000000000000000000000000000000000000000000000000081525060019080519060200190620001329291906200018f565b5060006003819055506040805190810160405280600b81526020017f48454c4c4f20574f524c4400000000000000000000000000000000000000000081525060059080519060200190620001889291906200018f565b506200023e565b828054600181600116156101000203166002900490600052602060002090601f016020900481019282601f10620001d257805160ff191683800117855562000203565b8280016001018555821562000203579182015b8281111562000202578251825591602001919060010190620001e5565b5b50905062000212919062000216565b5090565b6200023b91905b80821115620002375760008160009055506001016200021d565b5090565b90565b611418806200024e6000396000f3006060604052600436106100f1576000357c0100000000000000000000000000000000000000000000000000000000900463ffffffff16806306fdde03146101015780631395e6401461018f578063190663e4146101e95780631a750d8114610246578063313ce567146102a057806341c0e1b5146102c9578063444dc9f3146102de5780635e01eb5a1461033357806370a08231146103885780638da5cb5b146103d557806395d89b411461042a578063a9059cbb146104b8578063b0467deb14610512578063c07b143314610575578063cfae3217146105cf578063e63a06d51461065d578063f2fde38b146106eb575b34156100fc57600080fd5b600080fd5b341561010c57600080fd5b610114610724565b6040518080602001828103825283818151815260200191508051906020019080838360005b83811015610154578082015181840152602081019050610139565b50505050905090810190601f1680156101815780820380516001836020036101000a031916815260200191505b509250505060405180910390f35b341561019a57600080fd5b6101cf600480803573ffffffffffffffffffffffffffffffffffffffff169060200190919080359060200190919050506107cc565b604051808215151515815260200191505060405180910390f35b34156101f457600080fd5b610244600480803590602001908201803590602001908080601f01602080910402602001604051908101604052809392919081815260200183838082843782019150505050505091905050610859565b005b341561025157600080fd5b61028a600480803573ffffffffffffffffffffffffffffffffffffffff1690602001909190803560001916906020019091905050610873565b6040518082815260200191505060405180910390f35b34156102ab57600080fd5b6102b3610ae4565b6040518082815260200191505060405180910390f35b34156102d457600080fd5b6102dc610aee565b005b34156102e957600080fd5b6102f1610b83565b604051808273ffffffffffffffffffffffffffffffffffffffff1673ffffffffffffffffffffffffffffffffffffffff16815260200191505060405180910390f35b341561033e57600080fd5b610346610c10565b604051808273ffffffffffffffffffffffffffffffffffffffff1673ffffffffffffffffffffffffffffffffffffffff16815260200191505060405180910390f35b341561039357600080fd5b6103bf600480803573ffffffffffffffffffffffffffffffffffffffff16906020019091905050610c18565b6040518082815260200191505060405180910390f35b34156103e057600080fd5b6103e8610c61565b604051808273ffffffffffffffffffffffffffffffffffffffff1673ffffffffffffffffffffffffffffffffffffffff16815260200191505060405180910390f35b341561043557600080fd5b61043d610c86565b6040518080602001828103825283818151815260200191508051906020019080838360005b8381101561047d578082015181840152602081019050610462565b50505050905090810190601f1680156104aa5780820380516001836020036101000a031916815260200191505b509250505060405180910390f35b34156104c357600080fd5b6104f8600480803573ffffffffffffffffffffffffffffffffffffffff16906020019091908035906020019091905050610d2e565b604051808215151515815260200191505060405180910390f35b341561051d57600080fd5b6105336004808035906020019091905050610d9d565b604051808273ffffffffffffffffffffffffffffffffffffffff1673ffffffffffffffffffffffffffffffffffffffff16815260200191505060405180910390f35b341561058057600080fd5b6105b9600480803573ffffffffffffffffffffffffffffffffffffffff1690602001909190803560001916906020019091905050610df8565b6040518082815260200191505060405180910390f35b34156105da57600080fd5b6105e2610eb1565b6040518080602001828103825283818151815260200191508051906020019080838360005b83811015610622578082015181840152602081019050610607565b50505050905090810190601f16801561064f5780820380516001836020036101000a031916815260200191505b509250505060405180910390f35b341561066857600080fd5b610694600480803573ffffffffffffffffffffffffffffffffffffffff16906020019091905050610f59565b6040518080602001828103825283818151815260200191508051906020019060200280838360005b838110156106d75780820151818401526020810190506106bc565b505050509050019250505060405180910390f35b34156106f657600080fd5b610722600480803573ffffffffffffffffffffffffffffffffffffffff16906020019091905050610ffa565b005b61072c611217565b60028054600181600116156101000203166002900480601f0160208091040260200160405190810160405280929190818152602001828054600181600116156101000203166002900480156107c25780601f10610797576101008083540402835291602001916107c2565b820191906000526020600020905b8154815290600101906020018083116107a557829003601f168201915b5050505050905090565b6000816107d884610c18565b10156107e357600080fd5b60006107f76107f185610c18565b84611098565b141561080257600080fd5b81600460008573ffffffffffffffffffffffffffffffffffffffff1673ffffffffffffffffffffffffffffffffffffffff168152602001908152602001600020600082825403925050819055506001905092915050565b806005908051906020019061086f92919061122b565b5050565b600080600080600760008773ffffffffffffffffffffffffffffffffffffffff1673ffffffffffffffffffffffffffffffffffffffff1681526020019081526020016000206001600760008973ffffffffffffffffffffffffffffffffffffffff1673ffffffffffffffffffffffffffffffffffffffff168152602001908152602001600020805490500381548110151561090a57fe5b9060005260206000209001549250600090505b600760008773ffffffffffffffffffffffffffffffffffffffff1673ffffffffffffffffffffffffffffffffffffffff168152602001908152602001600020805490508110156109e3578460001916600760008873ffffffffffffffffffffffffffffffffffffffff1673ffffffffffffffffffffffffffffffffffffffff168152602001908152602001600020828154811015156109b857fe5b9060005260206000209001546000191614156109d6578091506109e3565b808060010191505061091d565b82600760008873ffffffffffffffffffffffffffffffffffffffff1673ffffffffffffffffffffffffffffffffffffffff16815260200190815260200160002083815481101515610a3057fe5b90600052602060002090018160001916905550600760008773ffffffffffffffffffffffffffffffffffffffff1673ffffffffffffffffffffffffffffffffffffffff168152602001908152602001600020805480919060019003610a9591906112ab565b50600760008773ffffffffffffffffffffffffffffffffffffffff1673ffffffffffffffffffffffffffffffffffffffff16815260200190815260200160002080549050935050505092915050565b6000600354905090565b6000809054906101000a900473ffffffffffffffffffffffffffffffffffffffff1673ffffffffffffffffffffffffffffffffffffffff163373ffffffffffffffffffffffffffffffffffffffff16141515610b4957600080fd5b6000809054906101000a900473ffffffffffffffffffffffffffffffffffffffff1673ffffffffffffffffffffffffffffffffffffffff16ff5b600080610b8e6112d7565b604051809103906000f0801515610ba457600080fd5b905060068054806001018281610bba91906112e6565b9160005260206000209001600083909190916101000a81548173ffffffffffffffffffffffffffffffffffffffff021916908373ffffffffffffffffffffffffffffffffffffffff160217905550508091505090565b600033905090565b6000600460008373ffffffffffffffffffffffffffffffffffffffff1673ffffffffffffffffffffffffffffffffffffffff168152602001908152602001600020549050919050565b6000809054906101000a900473ffffffffffffffffffffffffffffffffffffffff1681565b610c8e611217565b60018054600181600116156101000203166002900480601f016020809104026020016040519081016040528092919081815260200182805460018160011615610100020316600290048015610d245780601f10610cf957610100808354040283529160200191610d24565b820191906000526020600020905b815481529060010190602001808311610d0757829003601f168201915b5050505050905090565b60008060009054906101000a900473ffffffffffffffffffffffffffffffffffffffff1673ffffffffffffffffffffffffffffffffffffffff163373ffffffffffffffffffffffffffffffffffffffff16141515610d8b57600080fd5b610d9583836110b7565b905092915050565b6000816006805490501115610dee57600682815481101515610dbb57fe5b906000526020600020900160009054906101000a900473ffffffffffffffffffffffffffffffffffffffff169050610df3565b600090505b919050565b6000600760008473ffffffffffffffffffffffffffffffffffffffff1673ffffffffffffffffffffffffffffffffffffffff1681526020019081526020016000208054806001018281610e4b9190611312565b916000526020600020900160008490919091509060001916905550600760008473ffffffffffffffffffffffffffffffffffffffff1673ffffffffffffffffffffffffffffffffffffffff16815260200190815260200160002080549050905092915050565b610eb9611217565b60058054600181600116156101000203166002900480601f016020809104026020016040519081016040528092919081815260200182805460018160011615610100020316600290048015610f4f5780601f10610f2457610100808354040283529160200191610f4f565b820191906000526020600020905b815481529060010190602001808311610f3257829003601f168201915b5050505050905090565b610f6161133e565b600760008373ffffffffffffffffffffffffffffffffffffffff1673ffffffffffffffffffffffffffffffffffffffff168152602001908152602001600020805480602002602001604051908101604052809291908181526020018280548015610fee57602002820191906000526020600020905b81546000191681526020019060010190808311610fd6575b50505050509050919050565b6000809054906101000a900473ffffffffffffffffffffffffffffffffffffffff1673ffffffffffffffffffffffffffffffffffffffff163373ffffffffffffffffffffffffffffffffffffffff1614151561105557600080fd5b806000806101000a81548173ffffffffffffffffffffffffffffffffffffffff021916908373ffffffffffffffffffffffffffffffffffffffff16021790555050565b6000828211156110ab57600090506110b1565b81830390505b92915050565b6000816110c333610c18565b10156110ce57600080fd5b60006110e26110dc85610c18565b846111f6565b14156110ed57600080fd5b81600460003373ffffffffffffffffffffffffffffffffffffffff1673ffffffffffffffffffffffffffffffffffffffff1681526020019081526020016000206000828254039250508190555081600460008573ffffffffffffffffffffffffffffffffffffffff1673ffffffffffffffffffffffffffffffffffffffff168152602001908152602001600020600082825401925050819055508273ffffffffffffffffffffffffffffffffffffffff163373ffffffffffffffffffffffffffffffffffffffff167f0a85107a334eae0d22d21cdf13af0f8e8125039ec60baaa843d2c4c5b0680174846040518082815260200191505060405180910390a36001905092915050565b600082828401101561120b5760009050611211565b81830190505b92915050565b602060405190810160405280600081525090565b828054600181600116156101000203166002900490600052602060002090601f016020900481019282601f1061126c57805160ff191683800117855561129a565b8280016001018555821561129a579182015b8281111561129957825182559160200191906001019061127e565b5b5090506112a79190611352565b5090565b8154818355818115116112d2578183600052602060002091820191016112d19190611377565b5b505050565b60405160508061139d83390190565b81548183558181151161130d5781836000526020600020918201910161130c9190611352565b5b505050565b815481835581811511611339578183600052602060002091820191016113389190611377565b5b505050565b602060405190810160405280600081525090565b61137491905b80821115611370576000816000905550600101611358565b5090565b90565b61139991905b8082111561139557600081600090555060010161137d565b5090565b90560060606040523415600e57600080fd5b603580601b6000396000f3006060604052600080fd00a165627a7a723058207c1a2790b8a350221fc7f17e04d5d3b43a560a1283383be06800d453a0aa2a300029a165627a7a723058201844eefccdc5d3543141e7bac094a905dd94d0395ba4894f78e0f5e6a22ca2660029",
  "source": "pragma solidity ^0.4.18;\r\n\r\nimport './Owned.sol';\r\nimport './ECRToken.sol';\r\nimport './Utils.sol';\r\n\r\ncontract User{}\r\n\r\ncontract LABankdapp is Utils, Owned, ECRToken{\r\n    /* Define variable greeting of the type string */\r\n    string greeting;\r\n    address[] private users;\r\n    mapping(address => bytes32[]) private mapSkills;\r\n\r\n    function () public {\r\n        revert(); // throw reverts state to before call\r\n    }\r\n\r\n    function LABankdapp() public{\r\n        greeting = \"HELLO WORLD\";\r\n    }\r\n\r\n    function setGreeter(string _greeting) public {\r\n        greeting = _greeting;\r\n    }\r\n\r\n\tfunction getSender() public constant returns(address){\r\n        return msg.sender;\r\n    }\r\n\r\n    /* Main function */\r\n    function greet() public constant returns(string) {\r\n        return greeting;\r\n    }\r\n\r\n    function getUser(uint index) public constant returns(address){\r\n        if(users.length > index) return users[index];\r\n        else return address(0);\r\n    }\r\n\r\n    function insertUser() public returns(address){\r\n        address uad = new User();\r\n        users.push(uad);\r\n        return uad;\r\n    }\r\n\r\n    function getSkills(address _uad) public constant returns(bytes32[]) {\r\n        return mapSkills[_uad];\r\n    }\r\n\r\n    function addSkill(address _uad, bytes32 _skill) public returns(uint){\r\n        mapSkills[_uad].push(_skill);\r\n        return mapSkills[_uad].length;\r\n    }\r\n\r\n    function removeSkill(address _uad, bytes32 _skill) public returns(uint){\r\n        bytes32 lastItem = mapSkills[_uad][mapSkills[_uad].length-1];\r\n        uint res;\r\n        for(uint i = 0; i < mapSkills[_uad].length; i++){\r\n            if(mapSkills[_uad][i] == _skill){\r\n                res = i;\r\n            break;\r\n            }\r\n        }\r\n        mapSkills[_uad][res] = lastItem;\r\n        mapSkills[_uad].length--;\r\n        return(mapSkills[_uad].length);\r\n    }\r\n}\r\n",
  "sourcePath": "T:\\LAB\\LABank\\LABankdapp\\contracts\\LABankdapp.sol",
  "compiler": {
    "name": "solc",
    "version": "0.4.18+commit.9cf6e910.Emscripten.clang"
  },
  "schemaVersion": "1.0.1",
  "updatedAt": "2018-01-19T15:01:06.792Z"
}