{
  "contractName": "Test",
  "abi": [
    {
      "constant": true,
      "inputs": [],
      "name": "get",
      "outputs": [
        {
          "name": "",
          "type": "bytes32"
        }
      ],
      "payable": false,
      "stateMutability": "view",
      "type": "function"
    },
    {
      "constant": true,
      "inputs": [],
      "name": "foo",
      "outputs": [
        {
          "name": "",
          "type": "bytes32"
        }
      ],
      "payable": false,
      "stateMutability": "view",
      "type": "function"
    },
    {
      "constant": false,
      "inputs": [
        {
          "name": "val",
          "type": "bytes32"
        }
      ],
      "name": "set",
      "outputs": [],
      "payable": false,
      "stateMutability": "nonpayable",
      "type": "function"
    },
    {
      "inputs": [],
      "payable": false,
      "stateMutability": "nonpayable",
      "type": "constructor"
    }
  ],
  "bytecode": "0x6060604052341561000f57600080fd5b7f464450000000000000000000000000000000000000000000000000000000000060008160001916905550610121806100496000396000f3006060604052600436106053576000357c0100000000000000000000000000000000000000000000000000000000900463ffffffff1680636d4ce63c146058578063c2985578146086578063db80813f1460b4575b600080fd5b3415606257600080fd5b606860d8565b60405180826000191660001916815260200191505060405180910390f35b3415609057600080fd5b609660e1565b60405180826000191660001916815260200191505060405180910390f35b341560be57600080fd5b60d660048080356000191690602001909190505060e7565b005b60008054905090565b60005481565b8060008160001916905550505600a165627a7a723058202d36c3de83294e25cd96e12836907d936a4e806ef51a17e41f6bfdeac280b5320029",
  "source": "pragma solidity ^0.4.18;\r\n\r\ncontract Test {\r\n\r\n    bytes32 public foo;\r\n\r\n    function Test() public {\r\n      foo = \"FDP\";\r\n    }\r\n\r\n    function set(bytes32 val) public {\r\n        foo = val;\r\n    }\r\n    \r\n    function get() public constant returns(bytes32){\r\n        return foo;\r\n  }\r\n}",
  "sourcePath": "T:\\LAB\\LABank\\LABankdapp\\contracts\\Test.sol",
  "compiler": {
    "name": "solc",
    "version": "0.4.18+commit.9cf6e910.Emscripten.clang"
  },
  "schemaVersion": "1.0.1",
  "updatedAt": "2018-01-19T14:54:11.341Z"
}